:100000000C9454000C9471000C9471000C947100C9
:100010000C9471000C9471000C9471000C9471009C
:100020000C9471000C9471000C9471000C9471008C
:100030000C9471000C9471000C94AA020C94710041
:100040000C9471000C9471000C9471000C9471006C
:100050000C9471000C948D000C9471000C94710040
:100060000C9471000C947100001F000000001F0030
:10007000001F101010101F00001F181818181F0064
:10008000001F1C1C1C1C1F00001F1E1E1E1E1F000C
:10009000001F1F1F1F1F1F0003070F1F0F07030055
:1000A000181C1E1F1E1C180011241FBECFEFD8E005
:1000B000DEBFCDBF11E0A0E0B1E0ECE9F8E002C0A6
:1000C00005900D92AE30B107D9F721E0AEE0B1E076
:1000D00001C01D92AB31B207E1F70E943B020C94C4
:1000E0004C040C940000EAE7F0E080818F6A808382
:1000F00010927C000895EAE7F0E0808180648083BC
:10010000089560910F0170911001809111019091FB
:100110001201089580910E0108951F920F920FB65B
:100120000F9211242F933F934F935F936F937F937D
:100130008F939F93AF93BF93EF93FF93609178005A
:100140007091790080E090E00E94000320910F01FF
:100150003091100140911101509112010E94C5028D
:10016000882319F081E080930E01609178007091EE
:10017000790080E090E00E94000360930F0170938B
:1001800010018093110190931201FF91EF91BF91A3
:10019000AF919F918F917F916F915F914F913F911F
:1001A0002F910F900FBE0F901F901895982F907F52
:1001B0009BB99BB191609BB99BB194609BB9EFECEB
:1001C000F7E03197F1F700C000009BB19B7F9BB92E
:1001D0009BB19E7F9BB9EFECF7E03197F1F700C040
:1001E0000000F0E18F9FC00111248BB98BB18160B9
:1001F0008BB98BB184608BB98FEC97E00197F1F7E5
:1002000000C000008BB18B7F8BB98BB18E7F8BB917
:10021000EFECF7E03197F1F700C000000895982F58
:10022000907F9BB99BB194609BB92AE62A95F1F720
:1002300000C09BB19B7F9BB99AE69A95F1F700C0ED
:1002400020E1829FC00111248BB98BB184608BB9EE
:100250008AE68A95F1F700C08BB18B7F8BB99AE65D
:100260009A95F1F700C008950F931F93CF93DF93F2
:10027000009769F0D62F8C01C0E007C0F801EC0FA1
:10028000F11D80810E94D600CF5FCD17B8F3DF91BA
:10029000CF911F910F910895623031F0633031F0AA
:1002A000613029F4805C03C08C5E01C08C5A806888
:1002B0000E940F010895EF92FF920F931F93CF9327
:1002C000DF937C01862F90E0880F991F880F991F7C
:1002D000880F991F8064C0E0D0E00DC0F701EC0FDB
:1002E000FD1F149101E0080F0E940F01812F0E9451
:1002F000D6002196802FC830D10580F3DF91CF91B1
:100300001F910F91FF90EF900895CF93DF938FE2AD
:1003100095E70197F1F700C000001BB81BB88AB140
:10032000806F8AB98AB187608AB990E39BB98BB133
:1003300084608BB9EFECF7E03197F1F700C0000073
:100340008BB18B7F8BB9EFECF7E03197F1F700C001
:1003500000009BB98BB184608BB98FEC97E001975B
:10036000F1F700C000008BB18B7F8BB9EFECF7E0A9
:100370003197F1F700C0000080E28BB98BB1846047
:100380008BB98FEC97E00197F1F700C000008BB1BB
:100390008B7F8BB9EFECF7E03197F1F700C00000ED
:1003A00088E20E940F018CE00E940F0160E0C0E033
:1003B0000AC0D1E0D60F8C2F90E088599F4F0E9441
:1003C0005B01C85F6D2FC034A0F3DF91CF9108951A
:1003D0000F931F93CF93DF93EA0189010E94CA0212
:1003E000CB016AE070E00E942404F80180836883F6
:1003F000DF91CF911F910F910895FA018A3098F003
:100400009DEC899F912D112496959695969520E3C4
:10041000290F2083990F292F220F220F920F891B5A
:10042000805D818304C090E39083805D8183605D03
:100430006383089560E080E00E944C0166E084E000
:1004400091E00E94340160E08AE00E944C0162E089
:100450008BE091E00E94340108958DE787BD84B55B
:10046000826084BD85B5846085BDEEE6F0E0808164
:1004700082608083089584B1836084B90E9485017D
:1004800078940E9473000E947B000E941A020E94CE
:100490002D0280911401882339F10E94810020E00F
:1004A00030E44CE955E40E948F0320E030E040E85E
:1004B0005AE30E948F032AE131E045E151E00E94B6
:1004C000E80160E086E00E944C0140E051E060916C
:1004D0001A01809115010E94FD0164E080E091E025
:1004E0000E943401109214010E948A00882389F22C
:1004F0000E94810020E030E04AEF53E40E948F0325
:1005000020E030E040E85AE30E948F036B017C0159
:10051000609316017093170180931801909319014D
:1005200020E030E040EC51E40E948A0318161CF4ED
:1005300081E085B9AECF20E030E048E851E4C70162
:10054000B6010E94C50288231CF482E085B9A1CFC0
:1005500015B89FCF1F920F920FB60F9211248F9351
:100560009F938091130191E0980F909313018D3721
:1005700029F481E080931401109213019F918F91CF
:100580000F900FBE0F901F9018950E943D0308F426
:1005900081E008950E94D1026894B1110C94840303
:1005A00008950E94690388F09F5798F0B92F992702
:1005B000B751B0F0E1F0660F771F881F991F1AF04E
:1005C000BA95C9F714C0B13091F00E948303B1E02D
:1005D00008950C948303672F782F8827B85F39F02C
:1005E000B93FCCF3869577956795B395D9F73EF4E7
:1005F00090958095709561957F4F8F4F9F4F08958F
:10060000E89409C097FB3EF49095809570956195AC
:100610007F4F8F4F9F4F9923A9F0F92F96E9BB2762
:100620009395F695879577956795B795F111F8CFDE
:10063000FAF4BB0F11F460FF1BC06F5F7F4F8F4F49
:100640009F4F16C0882311F096E911C0772321F03F
:100650009EE8872F762F05C0662371F096E8862FD7
:1006600070E060E02AF09A95660F771F881FDAF72E
:10067000880F9695879597F90895990F0008550F5B
:10068000AA0BE0E8FEEF16161706E807F907C0F018
:1006900012161306E407F50798F0621B730B840B20
:1006A000950B39F40A2661F0232B242B252B21F4FA
:1006B00008950A2609F4A140A6958FEF811D811D9A
:1006C000089557FD9058440F551F59F05F3F71F042
:1006D0004795880F97FB991F61F09F3F79F08795A9
:1006E0000895121613061406551FF2CF4695F1DF32
:1006F00008C0161617061806991FF1CF86957105C2
:10070000610508940895E894BB2766277727CB01F5
:1007100097F908950E943D0308F48FEF08950E9411
:10072000A2030C9413040E94050438F00E940C04E8
:1007300020F0952311F00C94FC030C940204112476
:100740000C9484030E94610370F3959FC1F3950F8D
:1007500050E0551F629FF001729FBB27F00DB11D45
:10076000639FAA27F00DB11DAA1F649F6627B00DD5
:10077000A11D661F829F2227B00DA11D621F739FBE
:10078000B00DA11D621F839FA00D611D221F749FCC
:100790003327A00D611D231F849F600D211D822F13
:1007A000762F6A2F11249F5750409AF0F1F088233A
:1007B0004AF0EE0FFF1FBB1F661F771F881F915067
:1007C0005040A9F79E3F510580F00C94FC030C9417
:1007D00084035F3FE4F3983ED4F38695779567955D
:1007E000B795F795E7959F5FC1F7FE2B880F911D91
:1007F0009695879597F9089597F99F6780E870E037
:1008000060E008959FEF80EC089500240A94161686
:10081000170618060906089500240A9412161306EE
:10082000140605060895092E0394000C11F488237C
:1008300052F0BB0F40F4BF2B11F460FF04C06F5F98
:100840007F4F8F4F9F4F089597FB072E16F400940C
:1008500007D077FD09D00E94380407FC05D03EF48C
:10086000909581959F4F0895709561957F4F08955C
:10087000AA1BBB1B51E107C0AA1FBB1FA617B707C6
:1008800010F0A61BB70B881F991F5A95A9F78095E2
:0C0890009095BC01CD010895F894FFCFB5
:0E089C0030302E3054454D503A20002043009D
:00000001FF
