
TP4.elf:     file format elf32-avr

Sections:
Idx Name          Size      VMA       LMA       File off  Algn
  0 .data         0000000e  00800100  0000052a  000005be  2**0
                  CONTENTS, ALLOC, LOAD, DATA
  1 .text         0000052a  00000000  00000000  00000094  2**1
                  CONTENTS, ALLOC, LOAD, READONLY, CODE
  2 .bss          00000009  0080010e  0080010e  000005cc  2**0
                  ALLOC
  3 .comment      00000030  00000000  00000000  000005cc  2**0
                  CONTENTS, READONLY
  4 .note.gnu.avr.deviceinfo 00000040  00000000  00000000  000005fc  2**2
                  CONTENTS, READONLY
  5 .debug_aranges 00000170  00000000  00000000  0000063c  2**0
                  CONTENTS, READONLY, DEBUGGING
  6 .debug_info   000010cc  00000000  00000000  000007ac  2**0
                  CONTENTS, READONLY, DEBUGGING
  7 .debug_abbrev 000004d6  00000000  00000000  00001878  2**0
                  CONTENTS, READONLY, DEBUGGING
  8 .debug_line   000009dc  00000000  00000000  00001d4e  2**0
                  CONTENTS, READONLY, DEBUGGING
  9 .debug_frame  00000384  00000000  00000000  0000272c  2**2
                  CONTENTS, READONLY, DEBUGGING
 10 .debug_str    00000456  00000000  00000000  00002ab0  2**0
                  CONTENTS, READONLY, DEBUGGING
 11 .debug_loc    000010a2  00000000  00000000  00002f06  2**0
                  CONTENTS, READONLY, DEBUGGING
 12 .debug_ranges 00000148  00000000  00000000  00003fa8  2**0
                  CONTENTS, READONLY, DEBUGGING

Disassembly of section .text:

00000000 <__vectors>:
   0:	0c 94 54 00 	jmp	0xa8	; 0xa8 <__ctors_end>
   4:	0c 94 71 00 	jmp	0xe2	; 0xe2 <__bad_interrupt>
   8:	0c 94 71 00 	jmp	0xe2	; 0xe2 <__bad_interrupt>
   c:	0c 94 71 00 	jmp	0xe2	; 0xe2 <__bad_interrupt>
  10:	0c 94 71 00 	jmp	0xe2	; 0xe2 <__bad_interrupt>
  14:	0c 94 71 00 	jmp	0xe2	; 0xe2 <__bad_interrupt>
  18:	0c 94 71 00 	jmp	0xe2	; 0xe2 <__bad_interrupt>
  1c:	0c 94 71 00 	jmp	0xe2	; 0xe2 <__bad_interrupt>
  20:	0c 94 71 00 	jmp	0xe2	; 0xe2 <__bad_interrupt>
  24:	0c 94 71 00 	jmp	0xe2	; 0xe2 <__bad_interrupt>
  28:	0c 94 71 00 	jmp	0xe2	; 0xe2 <__bad_interrupt>
  2c:	0c 94 71 00 	jmp	0xe2	; 0xe2 <__bad_interrupt>
  30:	0c 94 71 00 	jmp	0xe2	; 0xe2 <__bad_interrupt>
  34:	0c 94 71 00 	jmp	0xe2	; 0xe2 <__bad_interrupt>
  38:	0c 94 69 02 	jmp	0x4d2	; 0x4d2 <__vector_14>
  3c:	0c 94 71 00 	jmp	0xe2	; 0xe2 <__bad_interrupt>
  40:	0c 94 71 00 	jmp	0xe2	; 0xe2 <__bad_interrupt>
  44:	0c 94 71 00 	jmp	0xe2	; 0xe2 <__bad_interrupt>
  48:	0c 94 71 00 	jmp	0xe2	; 0xe2 <__bad_interrupt>
  4c:	0c 94 71 00 	jmp	0xe2	; 0xe2 <__bad_interrupt>
  50:	0c 94 71 00 	jmp	0xe2	; 0xe2 <__bad_interrupt>
  54:	0c 94 8c 00 	jmp	0x118	; 0x118 <__vector_21>
  58:	0c 94 71 00 	jmp	0xe2	; 0xe2 <__bad_interrupt>
  5c:	0c 94 71 00 	jmp	0xe2	; 0xe2 <__bad_interrupt>
  60:	0c 94 71 00 	jmp	0xe2	; 0xe2 <__bad_interrupt>
  64:	0c 94 71 00 	jmp	0xe2	; 0xe2 <__bad_interrupt>

00000068 <LcdCustomChar>:
  68:	00 1f 00 00 00 00 1f 00 00 1f 10 10 10 10 1f 00     ................
  78:	00 1f 18 18 18 18 1f 00 00 1f 1c 1c 1c 1c 1f 00     ................
  88:	00 1f 1e 1e 1e 1e 1f 00 00 1f 1f 1f 1f 1f 1f 00     ................
  98:	03 07 0f 1f 0f 07 03 00 18 1c 1e 1f 1e 1c 18 00     ................

000000a8 <__ctors_end>:
  a8:	11 24       	eor	r1, r1
  aa:	1f be       	out	0x3f, r1	; 63
  ac:	cf ef       	ldi	r28, 0xFF	; 255
  ae:	d8 e0       	ldi	r29, 0x08	; 8
  b0:	de bf       	out	0x3e, r29	; 62
  b2:	cd bf       	out	0x3d, r28	; 61

000000b4 <__do_copy_data>:
  b4:	11 e0       	ldi	r17, 0x01	; 1
  b6:	a0 e0       	ldi	r26, 0x00	; 0
  b8:	b1 e0       	ldi	r27, 0x01	; 1
  ba:	ea e2       	ldi	r30, 0x2A	; 42
  bc:	f5 e0       	ldi	r31, 0x05	; 5
  be:	02 c0       	rjmp	.+4      	; 0xc4 <__do_copy_data+0x10>
  c0:	05 90       	lpm	r0, Z+
  c2:	0d 92       	st	X+, r0
  c4:	ae 30       	cpi	r26, 0x0E	; 14
  c6:	b1 07       	cpc	r27, r17
  c8:	d9 f7       	brne	.-10     	; 0xc0 <__do_copy_data+0xc>

000000ca <__do_clear_bss>:
  ca:	21 e0       	ldi	r18, 0x01	; 1
  cc:	ae e0       	ldi	r26, 0x0E	; 14
  ce:	b1 e0       	ldi	r27, 0x01	; 1
  d0:	01 c0       	rjmp	.+2      	; 0xd4 <.do_clear_bss_start>

000000d2 <.do_clear_bss_loop>:
  d2:	1d 92       	st	X+, r1

000000d4 <.do_clear_bss_start>:
  d4:	a7 31       	cpi	r26, 0x17	; 23
  d6:	b2 07       	cpc	r27, r18
  d8:	e1 f7       	brne	.-8      	; 0xd2 <.do_clear_bss_loop>
  da:	0e 94 cc 01 	call	0x398	; 0x398 <main>
  de:	0c 94 93 02 	jmp	0x526	; 0x526 <_exit>

000000e2 <__bad_interrupt>:
  e2:	0c 94 00 00 	jmp	0	; 0x0 <__vectors>

000000e6 <adc_init>:

volatile static uint16_t resultado;
volatile static uint8_t flagCambioValor=0;

void adc_init(){
	ADCSRA |= (1<<ADEN) | (1<<ADATE) | (1<<ADIE) | (1<<ADPS2) | (1<<ADPS1) | (1<<ADPS0);
  e6:	ea e7       	ldi	r30, 0x7A	; 122
  e8:	f0 e0       	ldi	r31, 0x00	; 0
  ea:	80 81       	ld	r24, Z
  ec:	8f 6a       	ori	r24, 0xAF	; 175
  ee:	80 83       	st	Z, r24
	ADMUX= 0x00;
  f0:	10 92 7c 00 	sts	0x007C, r1	; 0x80007c <__DATA_REGION_ORIGIN__+0x1c>
  f4:	08 95       	ret

000000f6 <adc_start>:
}

void adc_start(){
	ADCSRA |= (1<<ADSC);
  f6:	ea e7       	ldi	r30, 0x7A	; 122
  f8:	f0 e0       	ldi	r31, 0x00	; 0
  fa:	80 81       	ld	r24, Z
  fc:	80 64       	ori	r24, 0x40	; 64
  fe:	80 83       	st	Z, r24
 100:	08 95       	ret

00000102 <send_result>:
}

uint16_t send_result(){
	return resultado;
 102:	80 91 0f 01 	lds	r24, 0x010F	; 0x80010f <resultado>
 106:	90 91 10 01 	lds	r25, 0x0110	; 0x800110 <resultado+0x1>
}
 10a:	08 95       	ret

0000010c <send_cambioValor>:

uint8_t send_cambioValor(){
	return flagCambioValor;
 10c:	80 91 0e 01 	lds	r24, 0x010E	; 0x80010e <__data_end>
}
 110:	08 95       	ret

00000112 <reset_cambiarValor>:

void reset_cambiarValor(){
	flagCambioValor = 0;
 112:	10 92 0e 01 	sts	0x010E, r1	; 0x80010e <__data_end>
 116:	08 95       	ret

00000118 <__vector_21>:
}

ISR(ADC_vect){
 118:	1f 92       	push	r1
 11a:	0f 92       	push	r0
 11c:	0f b6       	in	r0, 0x3f	; 63
 11e:	0f 92       	push	r0
 120:	11 24       	eor	r1, r1
 122:	2f 93       	push	r18
 124:	3f 93       	push	r19
 126:	8f 93       	push	r24
 128:	9f 93       	push	r25
	if (resultado != ADC)
 12a:	20 91 78 00 	lds	r18, 0x0078	; 0x800078 <__DATA_REGION_ORIGIN__+0x18>
 12e:	30 91 79 00 	lds	r19, 0x0079	; 0x800079 <__DATA_REGION_ORIGIN__+0x19>
 132:	80 91 0f 01 	lds	r24, 0x010F	; 0x80010f <resultado>
 136:	90 91 10 01 	lds	r25, 0x0110	; 0x800110 <resultado+0x1>
 13a:	28 17       	cp	r18, r24
 13c:	39 07       	cpc	r19, r25
 13e:	19 f0       	breq	.+6      	; 0x146 <__vector_21+0x2e>
		flagCambioValor = 1;
 140:	81 e0       	ldi	r24, 0x01	; 1
 142:	80 93 0e 01 	sts	0x010E, r24	; 0x80010e <__data_end>
	resultado  = ADC;
 146:	80 91 78 00 	lds	r24, 0x0078	; 0x800078 <__DATA_REGION_ORIGIN__+0x18>
 14a:	90 91 79 00 	lds	r25, 0x0079	; 0x800079 <__DATA_REGION_ORIGIN__+0x19>
 14e:	90 93 10 01 	sts	0x0110, r25	; 0x800110 <resultado+0x1>
 152:	80 93 0f 01 	sts	0x010F, r24	; 0x80010f <resultado>
}
 156:	9f 91       	pop	r25
 158:	8f 91       	pop	r24
 15a:	3f 91       	pop	r19
 15c:	2f 91       	pop	r18
 15e:	0f 90       	pop	r0
 160:	0f be       	out	0x3f, r0	; 63
 162:	0f 90       	pop	r0
 164:	1f 90       	pop	r1
 166:	18 95       	reti

00000168 <LCDsendChar>:
	LCDGotoXY(x,y);
	for(i=0;(uint8_t)pgm_read_byte(&FlashLoc[i]);i++)
	{
		LCDsendChar((uint8_t)pgm_read_byte(&FlashLoc[i]));
	}
}
 168:	98 2f       	mov	r25, r24
 16a:	90 7f       	andi	r25, 0xF0	; 240
 16c:	9b b9       	out	0x0b, r25	; 11
 16e:	58 9a       	sbi	0x0b, 0	; 11
 170:	5a 9a       	sbi	0x0b, 2	; 11
 172:	ef ec       	ldi	r30, 0xCF	; 207
 174:	f7 e0       	ldi	r31, 0x07	; 7
 176:	31 97       	sbiw	r30, 0x01	; 1
 178:	f1 f7       	brne	.-4      	; 0x176 <LCDsendChar+0xe>
 17a:	00 c0       	rjmp	.+0      	; 0x17c <LCDsendChar+0x14>
 17c:	00 00       	nop
 17e:	5a 98       	cbi	0x0b, 2	; 11
 180:	58 98       	cbi	0x0b, 0	; 11
 182:	ef ec       	ldi	r30, 0xCF	; 207
 184:	f7 e0       	ldi	r31, 0x07	; 7
 186:	31 97       	sbiw	r30, 0x01	; 1
 188:	f1 f7       	brne	.-4      	; 0x186 <LCDsendChar+0x1e>
 18a:	00 c0       	rjmp	.+0      	; 0x18c <LCDsendChar+0x24>
 18c:	00 00       	nop
 18e:	f0 e1       	ldi	r31, 0x10	; 16
 190:	8f 9f       	mul	r24, r31
 192:	c0 01       	movw	r24, r0
 194:	11 24       	eor	r1, r1
 196:	8b b9       	out	0x0b, r24	; 11
 198:	58 9a       	sbi	0x0b, 0	; 11
 19a:	5a 9a       	sbi	0x0b, 2	; 11
 19c:	8f ec       	ldi	r24, 0xCF	; 207
 19e:	97 e0       	ldi	r25, 0x07	; 7
 1a0:	01 97       	sbiw	r24, 0x01	; 1
 1a2:	f1 f7       	brne	.-4      	; 0x1a0 <LCDsendChar+0x38>
 1a4:	00 c0       	rjmp	.+0      	; 0x1a6 <LCDsendChar+0x3e>
 1a6:	00 00       	nop
 1a8:	5a 98       	cbi	0x0b, 2	; 11
 1aa:	58 98       	cbi	0x0b, 0	; 11
 1ac:	ef ec       	ldi	r30, 0xCF	; 207
 1ae:	f7 e0       	ldi	r31, 0x07	; 7
 1b0:	31 97       	sbiw	r30, 0x01	; 1
 1b2:	f1 f7       	brne	.-4      	; 0x1b0 <LCDsendChar+0x48>
 1b4:	00 c0       	rjmp	.+0      	; 0x1b6 <LCDsendChar+0x4e>
 1b6:	00 00       	nop
 1b8:	08 95       	ret

000001ba <LCDsendCommand>:
 1ba:	98 2f       	mov	r25, r24
 1bc:	90 7f       	andi	r25, 0xF0	; 240
 1be:	9b b9       	out	0x0b, r25	; 11
 1c0:	5a 9a       	sbi	0x0b, 2	; 11
 1c2:	2a e6       	ldi	r18, 0x6A	; 106
 1c4:	2a 95       	dec	r18
 1c6:	f1 f7       	brne	.-4      	; 0x1c4 <LCDsendCommand+0xa>
 1c8:	00 c0       	rjmp	.+0      	; 0x1ca <LCDsendCommand+0x10>
 1ca:	5a 98       	cbi	0x0b, 2	; 11
 1cc:	9a e6       	ldi	r25, 0x6A	; 106
 1ce:	9a 95       	dec	r25
 1d0:	f1 f7       	brne	.-4      	; 0x1ce <LCDsendCommand+0x14>
 1d2:	00 c0       	rjmp	.+0      	; 0x1d4 <LCDsendCommand+0x1a>
 1d4:	20 e1       	ldi	r18, 0x10	; 16
 1d6:	82 9f       	mul	r24, r18
 1d8:	c0 01       	movw	r24, r0
 1da:	11 24       	eor	r1, r1
 1dc:	8b b9       	out	0x0b, r24	; 11
 1de:	5a 9a       	sbi	0x0b, 2	; 11
 1e0:	8a e6       	ldi	r24, 0x6A	; 106
 1e2:	8a 95       	dec	r24
 1e4:	f1 f7       	brne	.-4      	; 0x1e2 <LCDsendCommand+0x28>
 1e6:	00 c0       	rjmp	.+0      	; 0x1e8 <LCDsendCommand+0x2e>
 1e8:	5a 98       	cbi	0x0b, 2	; 11
 1ea:	9a e6       	ldi	r25, 0x6A	; 106
 1ec:	9a 95       	dec	r25
 1ee:	f1 f7       	brne	.-4      	; 0x1ec <LCDsendCommand+0x32>
 1f0:	00 c0       	rjmp	.+0      	; 0x1f2 <LCDsendCommand+0x38>
 1f2:	08 95       	ret

000001f4 <LCDstring>:
 1f4:	0f 93       	push	r16
 1f6:	1f 93       	push	r17
 1f8:	cf 93       	push	r28
 1fa:	df 93       	push	r29
 1fc:	00 97       	sbiw	r24, 0x00	; 0
 1fe:	81 f0       	breq	.+32     	; 0x220 <LCDstring+0x2c>
 200:	66 23       	and	r22, r22
 202:	71 f0       	breq	.+28     	; 0x220 <LCDstring+0x2c>
 204:	ec 01       	movw	r28, r24
 206:	61 50       	subi	r22, 0x01	; 1
 208:	06 2f       	mov	r16, r22
 20a:	10 e0       	ldi	r17, 0x00	; 0
 20c:	0f 5f       	subi	r16, 0xFF	; 255
 20e:	1f 4f       	sbci	r17, 0xFF	; 255
 210:	08 0f       	add	r16, r24
 212:	19 1f       	adc	r17, r25
 214:	89 91       	ld	r24, Y+
 216:	0e 94 b4 00 	call	0x168	; 0x168 <LCDsendChar>
 21a:	c0 17       	cp	r28, r16
 21c:	d1 07       	cpc	r29, r17
 21e:	d1 f7       	brne	.-12     	; 0x214 <LCDstring+0x20>
 220:	df 91       	pop	r29
 222:	cf 91       	pop	r28
 224:	1f 91       	pop	r17
 226:	0f 91       	pop	r16
 228:	08 95       	ret

0000022a <LCDGotoXY>:
 22a:	62 30       	cpi	r22, 0x02	; 2
 22c:	31 f0       	breq	.+12     	; 0x23a <LCDGotoXY+0x10>
 22e:	63 30       	cpi	r22, 0x03	; 3
 230:	31 f0       	breq	.+12     	; 0x23e <LCDGotoXY+0x14>
 232:	61 30       	cpi	r22, 0x01	; 1
 234:	29 f4       	brne	.+10     	; 0x240 <LCDGotoXY+0x16>
 236:	80 5c       	subi	r24, 0xC0	; 192
 238:	03 c0       	rjmp	.+6      	; 0x240 <LCDGotoXY+0x16>
 23a:	8c 5e       	subi	r24, 0xEC	; 236
 23c:	01 c0       	rjmp	.+2      	; 0x240 <LCDGotoXY+0x16>
 23e:	8c 5a       	subi	r24, 0xAC	; 172
 240:	80 68       	ori	r24, 0x80	; 128
 242:	0e 94 dd 00 	call	0x1ba	; 0x1ba <LCDsendCommand>
 246:	08 95       	ret

00000248 <LCDdefinechar>:
0b00000000,
0b00000000
};
LCDdefinechar(backslash,0);
*/
void LCDdefinechar(const uint8_t *pc,uint8_t char_code){
 248:	ff 92       	push	r15
 24a:	0f 93       	push	r16
 24c:	1f 93       	push	r17
 24e:	cf 93       	push	r28
 250:	df 93       	push	r29
	uint8_t a, pcc;
	uint16_t i;
	a=(char_code<<3)|0x40;
 252:	66 0f       	add	r22, r22
 254:	66 0f       	add	r22, r22
 256:	66 0f       	add	r22, r22
 258:	60 64       	ori	r22, 0x40	; 64
 25a:	ec 01       	movw	r28, r24
 25c:	68 94       	set
 25e:	ff 24       	eor	r15, r15
 260:	f3 f8       	bld	r15, 3
 262:	f6 0e       	add	r15, r22
	for (i=0; i<8; i++){
		pcc=pgm_read_byte(&pc[i]);
 264:	fe 01       	movw	r30, r28
 266:	04 91       	lpm	r16, Z
		LCDsendCommand(a++);
 268:	11 e0       	ldi	r17, 0x01	; 1
 26a:	16 0f       	add	r17, r22
 26c:	86 2f       	mov	r24, r22
 26e:	0e 94 dd 00 	call	0x1ba	; 0x1ba <LCDsendCommand>
		LCDsendChar(pcc);
 272:	80 2f       	mov	r24, r16
 274:	0e 94 b4 00 	call	0x168	; 0x168 <LCDsendChar>
 278:	21 96       	adiw	r28, 0x01	; 1
	uint8_t a, pcc;
	uint16_t i;
	a=(char_code<<3)|0x40;
	for (i=0; i<8; i++){
		pcc=pgm_read_byte(&pc[i]);
		LCDsendCommand(a++);
 27a:	61 2f       	mov	r22, r17
*/
void LCDdefinechar(const uint8_t *pc,uint8_t char_code){
	uint8_t a, pcc;
	uint16_t i;
	a=(char_code<<3)|0x40;
	for (i=0; i<8; i++){
 27c:	1f 11       	cpse	r17, r15
 27e:	f2 cf       	rjmp	.-28     	; 0x264 <LCDdefinechar+0x1c>
		pcc=pgm_read_byte(&pc[i]);
		LCDsendCommand(a++);
		LCDsendChar(pcc);
		}
}
 280:	df 91       	pop	r29
 282:	cf 91       	pop	r28
 284:	1f 91       	pop	r17
 286:	0f 91       	pop	r16
 288:	ff 90       	pop	r15
 28a:	08 95       	ret

0000028c <LCDinit>:
	LCP&=~(1<<LCD_E);
	_delay_ms(1);	
#endif
}
void LCDinit(void)//Initializes LCD
{
 28c:	1f 93       	push	r17
 28e:	cf 93       	push	r28
 290:	df 93       	push	r29
	#else
		//round up by default
		__ticks_dc = (uint32_t)(ceil(fabs(__tmp)));
	#endif

	__builtin_avr_delay_cycles(__ticks_dc);
 292:	8f e2       	ldi	r24, 0x2F	; 47
 294:	95 e7       	ldi	r25, 0x75	; 117
 296:	01 97       	sbiw	r24, 0x01	; 1
 298:	f1 f7       	brne	.-4      	; 0x296 <LCDinit+0xa>
 29a:	00 c0       	rjmp	.+0      	; 0x29c <LCDinit+0x10>
 29c:	00 00       	nop
#ifdef LCD_4bit	
	//4 bit part
	_delay_ms(15);
	LDP=0x00;
 29e:	1b b8       	out	0x0b, r1	; 11
	LCP=0x00;
 2a0:	1b b8       	out	0x0b, r1	; 11
	LDDR|=1<<LCD_D7|1<<LCD_D6|1<<LCD_D5|1<<LCD_D4;
 2a2:	8a b1       	in	r24, 0x0a	; 10
 2a4:	80 6f       	ori	r24, 0xF0	; 240
 2a6:	8a b9       	out	0x0a, r24	; 10
	LCDR|=1<<LCD_E|1<<LCD_RW|1<<LCD_RS;
 2a8:	8a b1       	in	r24, 0x0a	; 10
 2aa:	87 60       	ori	r24, 0x07	; 7
 2ac:	8a b9       	out	0x0a, r24	; 10
   //---------one------
	LDP=0<<LCD_D7|0<<LCD_D6|1<<LCD_D5|1<<LCD_D4; //4 bit mode
 2ae:	80 e3       	ldi	r24, 0x30	; 48
 2b0:	8b b9       	out	0x0b, r24	; 11
	LCP|=1<<LCD_E|0<<LCD_RW|0<<LCD_RS;		
 2b2:	5a 9a       	sbi	0x0b, 2	; 11
 2b4:	ef ec       	ldi	r30, 0xCF	; 207
 2b6:	f7 e0       	ldi	r31, 0x07	; 7
 2b8:	31 97       	sbiw	r30, 0x01	; 1
 2ba:	f1 f7       	brne	.-4      	; 0x2b8 <LCDinit+0x2c>
 2bc:	00 c0       	rjmp	.+0      	; 0x2be <LCDinit+0x32>
 2be:	00 00       	nop
	_delay_ms(1);
	LCP&=~(1<<LCD_E);
 2c0:	5a 98       	cbi	0x0b, 2	; 11
 2c2:	ef ec       	ldi	r30, 0xCF	; 207
 2c4:	f7 e0       	ldi	r31, 0x07	; 7
 2c6:	31 97       	sbiw	r30, 0x01	; 1
 2c8:	f1 f7       	brne	.-4      	; 0x2c6 <LCDinit+0x3a>
 2ca:	00 c0       	rjmp	.+0      	; 0x2cc <LCDinit+0x40>
 2cc:	00 00       	nop
	_delay_ms(1);
	//-----------two-----------
	LDP=0<<LCD_D7|0<<LCD_D6|1<<LCD_D5|1<<LCD_D4; //4 bit mode
 2ce:	8b b9       	out	0x0b, r24	; 11
	LCP|=1<<LCD_E|0<<LCD_RW|0<<LCD_RS;		
 2d0:	5a 9a       	sbi	0x0b, 2	; 11
 2d2:	8f ec       	ldi	r24, 0xCF	; 207
 2d4:	97 e0       	ldi	r25, 0x07	; 7
 2d6:	01 97       	sbiw	r24, 0x01	; 1
 2d8:	f1 f7       	brne	.-4      	; 0x2d6 <LCDinit+0x4a>
 2da:	00 c0       	rjmp	.+0      	; 0x2dc <LCDinit+0x50>
 2dc:	00 00       	nop
	_delay_ms(1);
	LCP&=~(1<<LCD_E);
 2de:	5a 98       	cbi	0x0b, 2	; 11
 2e0:	ef ec       	ldi	r30, 0xCF	; 207
 2e2:	f7 e0       	ldi	r31, 0x07	; 7
 2e4:	31 97       	sbiw	r30, 0x01	; 1
 2e6:	f1 f7       	brne	.-4      	; 0x2e4 <LCDinit+0x58>
 2e8:	00 c0       	rjmp	.+0      	; 0x2ea <LCDinit+0x5e>
 2ea:	00 00       	nop
	_delay_ms(1);
	//-------three-------------
	LDP=0<<LCD_D7|0<<LCD_D6|1<<LCD_D5|0<<LCD_D4; //4 bit mode
 2ec:	80 e2       	ldi	r24, 0x20	; 32
 2ee:	8b b9       	out	0x0b, r24	; 11
	LCP|=1<<LCD_E|0<<LCD_RW|0<<LCD_RS;		
 2f0:	5a 9a       	sbi	0x0b, 2	; 11
 2f2:	8f ec       	ldi	r24, 0xCF	; 207
 2f4:	97 e0       	ldi	r25, 0x07	; 7
 2f6:	01 97       	sbiw	r24, 0x01	; 1
 2f8:	f1 f7       	brne	.-4      	; 0x2f6 <LCDinit+0x6a>
 2fa:	00 c0       	rjmp	.+0      	; 0x2fc <LCDinit+0x70>
 2fc:	00 00       	nop
	_delay_ms(1);
	LCP&=~(1<<LCD_E);
 2fe:	5a 98       	cbi	0x0b, 2	; 11
 300:	ef ec       	ldi	r30, 0xCF	; 207
 302:	f7 e0       	ldi	r31, 0x07	; 7
 304:	31 97       	sbiw	r30, 0x01	; 1
 306:	f1 f7       	brne	.-4      	; 0x304 <LCDinit+0x78>
 308:	00 c0       	rjmp	.+0      	; 0x30a <LCDinit+0x7e>
 30a:	00 00       	nop
	_delay_ms(1);
	//--------4 bit--dual line---------------
	LCDsendCommand(0b00101000);
 30c:	88 e2       	ldi	r24, 0x28	; 40
 30e:	0e 94 dd 00 	call	0x1ba	; 0x1ba <LCDsendCommand>
   //-----increment address, invisible cursor shift------
	LCDsendCommand(0b00001100);
 312:	8c e0       	ldi	r24, 0x0C	; 12
 314:	0e 94 dd 00 	call	0x1ba	; 0x1ba <LCDsendCommand>
 318:	c8 e6       	ldi	r28, 0x68	; 104
 31a:	d0 e0       	ldi	r29, 0x00	; 0
		//init 8 custom chars
	uint8_t ch=0, chn=0;
 31c:	60 e0       	ldi	r22, 0x00	; 0
	while(ch<64)
	{
		LCDdefinechar((LcdCustomChar+ch),chn++);
 31e:	11 e0       	ldi	r17, 0x01	; 1
 320:	16 0f       	add	r17, r22
 322:	ce 01       	movw	r24, r28
 324:	0e 94 24 01 	call	0x248	; 0x248 <LCDdefinechar>
 328:	28 96       	adiw	r28, 0x08	; 8
 32a:	61 2f       	mov	r22, r17
	LCDsendCommand(0b00101000);
   //-----increment address, invisible cursor shift------
	LCDsendCommand(0b00001100);
		//init 8 custom chars
	uint8_t ch=0, chn=0;
	while(ch<64)
 32c:	18 30       	cpi	r17, 0x08	; 8
 32e:	b9 f7       	brne	.-18     	; 0x31e <LCDinit+0x92>
		LCDdefinechar((LcdCustomChar+ch),chn++);
		ch=ch+8;
	}

#endif
}			
 330:	df 91       	pop	r29
 332:	cf 91       	pop	r28
 334:	1f 91       	pop	r17
 336:	08 95       	ret

00000338 <stringGrado>:
	//calcular el mod 10 de dato va a ser el decimal
	*decimal = dato % 10;
	*entero = dato / 10;
}

void stringGrado(uint8_t entero, uint8_t decimal, uint8_t*str){
 338:	fa 01       	movw	r30, r20
	if(entero>9){
 33a:	8a 30       	cpi	r24, 0x0A	; 10
 33c:	98 f0       	brcs	.+38     	; 0x364 <stringGrado+0x2c>
		str[0] = (entero / 10) + 48;
 33e:	9d ec       	ldi	r25, 0xCD	; 205
 340:	89 9f       	mul	r24, r25
 342:	91 2d       	mov	r25, r1
 344:	11 24       	eor	r1, r1
 346:	96 95       	lsr	r25
 348:	96 95       	lsr	r25
 34a:	96 95       	lsr	r25
 34c:	20 e3       	ldi	r18, 0x30	; 48
 34e:	29 0f       	add	r18, r25
 350:	20 83       	st	Z, r18
		str[1] = (entero % 10) + 48;
 352:	99 0f       	add	r25, r25
 354:	29 2f       	mov	r18, r25
 356:	22 0f       	add	r18, r18
 358:	22 0f       	add	r18, r18
 35a:	92 0f       	add	r25, r18
 35c:	89 1b       	sub	r24, r25
 35e:	80 5d       	subi	r24, 0xD0	; 208
 360:	81 83       	std	Z+1, r24	; 0x01
 362:	04 c0       	rjmp	.+8      	; 0x36c <stringGrado+0x34>
	}else{
		str[0] = '0';
 364:	90 e3       	ldi	r25, 0x30	; 48
 366:	90 83       	st	Z, r25
		str[1] = entero + 48;
 368:	80 5d       	subi	r24, 0xD0	; 208
 36a:	81 83       	std	Z+1, r24	; 0x01
	}
	 str[3] = decimal + 48;
 36c:	60 5d       	subi	r22, 0xD0	; 208
 36e:	63 83       	std	Z+3, r22	; 0x03
 370:	08 95       	ret

00000372 <temInit>:
	
}

void temInit(){
	LCDGotoXY(0,0);
 372:	60 e0       	ldi	r22, 0x00	; 0
 374:	80 e0       	ldi	r24, 0x00	; 0
 376:	0e 94 15 01 	call	0x22a	; 0x22a <LCDGotoXY>
	LCDstring("TEMP: ",6);
 37a:	66 e0       	ldi	r22, 0x06	; 6
 37c:	84 e0       	ldi	r24, 0x04	; 4
 37e:	91 e0       	ldi	r25, 0x01	; 1
 380:	0e 94 fa 00 	call	0x1f4	; 0x1f4 <LCDstring>
	LCDGotoXY(10,0);
 384:	60 e0       	ldi	r22, 0x00	; 0
 386:	8a e0       	ldi	r24, 0x0A	; 10
 388:	0e 94 15 01 	call	0x22a	; 0x22a <LCDGotoXY>
	LCDstring(" C",2);
 38c:	62 e0       	ldi	r22, 0x02	; 2
 38e:	8b e0       	ldi	r24, 0x0B	; 11
 390:	91 e0       	ldi	r25, 0x01	; 1
 392:	0e 94 fa 00 	call	0x1f4	; 0x1f4 <LCDstring>
 396:	08 95       	ret

00000398 <main>:
uint8_t gradosString[4] = {'0','0','.','0'};
uint16_t grados;

int main(void)
{
	DDRB |= (1<<PINB0) | (1<<PINB1); //Configuramos los pines PB0 Y PB1 como salida del puerto B
 398:	84 b1       	in	r24, 0x04	; 4
 39a:	83 60       	ori	r24, 0x03	; 3
 39c:	84 b9       	out	0x04, r24	; 4
    LCDinit();
 39e:	0e 94 46 01 	call	0x28c	; 0x28c <LCDinit>
	sei(); //Activamos interrupciones
 3a2:	78 94       	sei
	adc_init(); //Inicializar ADC
 3a4:	0e 94 73 00 	call	0xe6	; 0xe6 <adc_init>
	adc_start();
 3a8:	0e 94 7b 00 	call	0xf6	; 0xf6 <adc_start>
	temInit(); //Escribe TEMP en el LCD para que luego solo se cambien los grados
 3ac:	0e 94 b9 01 	call	0x372	; 0x372 <temInit>
	initTimer(); //Inicializa timer
 3b0:	0e 94 55 02 	call	0x4aa	; 0x4aa <initTimer>
		if (send_cambioValor()){ //Si se realizo algun cambio en el ADC send_cambioValor retornará verdadero
			grados = ((send_result()*5000UL)/1024);
			if (grados > 240) {
				PORTB = (1<<PINB0); //Prendemos ventilación
			}else if (grados < 170){
						PORTB = (1<<PINB1); //Prendemos calefacción
 3b4:	d2 e0       	ldi	r29, 0x02	; 2
		}
		
		if (send_cambioValor()){ //Si se realizo algun cambio en el ADC send_cambioValor retornará verdadero
			grados = ((send_result()*5000UL)/1024);
			if (grados > 240) {
				PORTB = (1<<PINB0); //Prendemos ventilación
 3b6:	c1 e0       	ldi	r28, 0x01	; 1
	temInit(); //Escribe TEMP en el LCD para que luego solo se cambien los grados
	initTimer(); //Inicializa timer
	
    while (1) 
    {	
		if (get_flagTimer0()){
 3b8:	0e 94 63 02 	call	0x4c6	; 0x4c6 <get_flagTimer0>
 3bc:	88 23       	and	r24, r24
 3be:	09 f4       	brne	.+2      	; 0x3c2 <main+0x2a>
 3c0:	4b c0       	rjmp	.+150    	; 0x458 <__FUSE_REGION_LENGTH__+0x58>
			separEnteroDecimal(((send_result()*5000UL)/1024),&gradoEntero,&gradoDecimal); //Guardo la parte entera y decimal de la temperatura en dos variables
 3c2:	0e 94 81 00 	call	0x102	; 0x102 <send_result>
 3c6:	9c 01       	movw	r18, r24
 3c8:	a8 e8       	ldi	r26, 0x88	; 136
 3ca:	b3 e1       	ldi	r27, 0x13	; 19
 3cc:	0e 94 84 02 	call	0x508	; 0x508 <__umulhisi3>
 3d0:	6b 01       	movw	r12, r22
 3d2:	7c 01       	movw	r14, r24
 3d4:	0b 2e       	mov	r0, r27
 3d6:	ba e0       	ldi	r27, 0x0A	; 10
 3d8:	f6 94       	lsr	r15
 3da:	e7 94       	ror	r14
 3dc:	d7 94       	ror	r13
 3de:	c7 94       	ror	r12
 3e0:	ba 95       	dec	r27
 3e2:	d1 f7       	brne	.-12     	; 0x3d8 <main+0x40>
 3e4:	b0 2d       	mov	r27, r0
    }
}

void separEnteroDecimal(uint16_t dato,uint8_t *entero, uint8_t *decimal){
	//calcular el mod 10 de dato va a ser el decimal
	*decimal = dato % 10;
 3e6:	96 01       	movw	r18, r12
 3e8:	ad ec       	ldi	r26, 0xCD	; 205
 3ea:	bc ec       	ldi	r27, 0xCC	; 204
 3ec:	0e 94 84 02 	call	0x508	; 0x508 <__umulhisi3>
 3f0:	96 95       	lsr	r25
 3f2:	87 95       	ror	r24
 3f4:	96 95       	lsr	r25
 3f6:	87 95       	ror	r24
 3f8:	96 95       	lsr	r25
 3fa:	87 95       	ror	r24
 3fc:	9c 01       	movw	r18, r24
 3fe:	22 0f       	add	r18, r18
 400:	33 1f       	adc	r19, r19
 402:	88 0f       	add	r24, r24
 404:	99 1f       	adc	r25, r25
 406:	88 0f       	add	r24, r24
 408:	99 1f       	adc	r25, r25
 40a:	88 0f       	add	r24, r24
 40c:	99 1f       	adc	r25, r25
 40e:	82 0f       	add	r24, r18
 410:	93 1f       	adc	r25, r19
 412:	96 01       	movw	r18, r12
 414:	28 1b       	sub	r18, r24
 416:	39 0b       	sbc	r19, r25
 418:	20 93 16 01 	sts	0x0116, r18	; 0x800116 <gradoDecimal>
	*entero = dato / 10;
 41c:	96 01       	movw	r18, r12
 41e:	0e 94 84 02 	call	0x508	; 0x508 <__umulhisi3>
 422:	96 95       	lsr	r25
 424:	87 95       	ror	r24
 426:	96 95       	lsr	r25
 428:	87 95       	ror	r24
 42a:	96 95       	lsr	r25
 42c:	87 95       	ror	r24
 42e:	80 93 13 01 	sts	0x0113, r24	; 0x800113 <gradoEntero>
	
    while (1) 
    {	
		if (get_flagTimer0()){
			separEnteroDecimal(((send_result()*5000UL)/1024),&gradoEntero,&gradoDecimal); //Guardo la parte entera y decimal de la temperatura en dos variables
			LCDGotoXY(6,0);
 432:	60 e0       	ldi	r22, 0x00	; 0
 434:	86 e0       	ldi	r24, 0x06	; 6
 436:	0e 94 15 01 	call	0x22a	; 0x22a <LCDGotoXY>
			stringGrado(gradoEntero,gradoDecimal,gradosString); //Generamos un string valido y lo guardamos en gradosString
 43a:	40 e0       	ldi	r20, 0x00	; 0
 43c:	51 e0       	ldi	r21, 0x01	; 1
 43e:	60 91 16 01 	lds	r22, 0x0116	; 0x800116 <gradoDecimal>
 442:	80 91 13 01 	lds	r24, 0x0113	; 0x800113 <gradoEntero>
 446:	0e 94 9c 01 	call	0x338	; 0x338 <stringGrado>
			LCDstring(gradosString,4); //Mandamos string a LCD
 44a:	64 e0       	ldi	r22, 0x04	; 4
 44c:	80 e0       	ldi	r24, 0x00	; 0
 44e:	91 e0       	ldi	r25, 0x01	; 1
 450:	0e 94 fa 00 	call	0x1f4	; 0x1f4 <LCDstring>
			reset_flagTimer0();
 454:	0e 94 66 02 	call	0x4cc	; 0x4cc <reset_flagTimer0>
		}
		
		if (send_cambioValor()){ //Si se realizo algun cambio en el ADC send_cambioValor retornará verdadero
 458:	0e 94 86 00 	call	0x10c	; 0x10c <send_cambioValor>
 45c:	88 23       	and	r24, r24
 45e:	09 f4       	brne	.+2      	; 0x462 <__FUSE_REGION_LENGTH__+0x62>
 460:	ab cf       	rjmp	.-170    	; 0x3b8 <main+0x20>
			grados = ((send_result()*5000UL)/1024);
 462:	0e 94 81 00 	call	0x102	; 0x102 <send_result>
 466:	9c 01       	movw	r18, r24
 468:	a8 e8       	ldi	r26, 0x88	; 136
 46a:	b3 e1       	ldi	r27, 0x13	; 19
 46c:	0e 94 84 02 	call	0x508	; 0x508 <__umulhisi3>
 470:	dc 01       	movw	r26, r24
 472:	cb 01       	movw	r24, r22
 474:	07 2e       	mov	r0, r23
 476:	7a e0       	ldi	r23, 0x0A	; 10
 478:	b6 95       	lsr	r27
 47a:	a7 95       	ror	r26
 47c:	97 95       	ror	r25
 47e:	87 95       	ror	r24
 480:	7a 95       	dec	r23
 482:	d1 f7       	brne	.-12     	; 0x478 <__FUSE_REGION_LENGTH__+0x78>
 484:	70 2d       	mov	r23, r0
 486:	90 93 15 01 	sts	0x0115, r25	; 0x800115 <grados+0x1>
 48a:	80 93 14 01 	sts	0x0114, r24	; 0x800114 <grados>
			if (grados > 240) {
 48e:	81 3f       	cpi	r24, 0xF1	; 241
 490:	91 05       	cpc	r25, r1
 492:	10 f0       	brcs	.+4      	; 0x498 <__FUSE_REGION_LENGTH__+0x98>
				PORTB = (1<<PINB0); //Prendemos ventilación
 494:	c5 b9       	out	0x05, r28	; 5
 496:	06 c0       	rjmp	.+12     	; 0x4a4 <__FUSE_REGION_LENGTH__+0xa4>
			}else if (grados < 170){
 498:	8a 3a       	cpi	r24, 0xAA	; 170
 49a:	91 05       	cpc	r25, r1
 49c:	10 f4       	brcc	.+4      	; 0x4a2 <__FUSE_REGION_LENGTH__+0xa2>
						PORTB = (1<<PINB1); //Prendemos calefacción
 49e:	d5 b9       	out	0x05, r29	; 5
 4a0:	01 c0       	rjmp	.+2      	; 0x4a4 <__FUSE_REGION_LENGTH__+0xa4>
					}
				else PORTB = 0; //Apagamos ambos dispositivos
 4a2:	15 b8       	out	0x05, r1	; 5
			reset_cambiarValor();
 4a4:	0e 94 89 00 	call	0x112	; 0x112 <reset_cambiarValor>
 4a8:	87 cf       	rjmp	.-242    	; 0x3b8 <main+0x20>

000004aa <initTimer>:
void initTimer(){
	/*supongo que tengo un timer de 8MHz queremos que se active cada 0.5seg
	divido por 256 me queda que cada 0.5seg hago 15625 instrucciones y pongo el 0CR0A en 125
	para que llame a la instruccion 125 veces en 0.5 segundos*/
	
	OCR0A = 125;
 4aa:	8d e7       	ldi	r24, 0x7D	; 125
 4ac:	87 bd       	out	0x27, r24	; 39
	TCCR0A |= (1<<WGM01);	//modo CTC
 4ae:	84 b5       	in	r24, 0x24	; 36
 4b0:	82 60       	ori	r24, 0x02	; 2
 4b2:	84 bd       	out	0x24, r24	; 36
	TCCR0B |= (1<<CS02);	//prescalar de 256
 4b4:	85 b5       	in	r24, 0x25	; 37
 4b6:	84 60       	ori	r24, 0x04	; 4
 4b8:	85 bd       	out	0x25, r24	; 37
	TIMSK0 |= (1<<OCIE0A); //activo interrupciones
 4ba:	ee e6       	ldi	r30, 0x6E	; 110
 4bc:	f0 e0       	ldi	r31, 0x00	; 0
 4be:	80 81       	ld	r24, Z
 4c0:	82 60       	ori	r24, 0x02	; 2
 4c2:	80 83       	st	Z, r24
 4c4:	08 95       	ret

000004c6 <get_flagTimer0>:
}

uint8_t get_flagTimer0(){
	return flagTimer;
 4c6:	80 91 12 01 	lds	r24, 0x0112	; 0x800112 <flagTimer>
}
 4ca:	08 95       	ret

000004cc <reset_flagTimer0>:

void reset_flagTimer0(){
	flagTimer = 0;
 4cc:	10 92 12 01 	sts	0x0112, r1	; 0x800112 <flagTimer>
 4d0:	08 95       	ret

000004d2 <__vector_14>:
}

ISR (TIMER0_COMPA_vect)
{
 4d2:	1f 92       	push	r1
 4d4:	0f 92       	push	r0
 4d6:	0f b6       	in	r0, 0x3f	; 63
 4d8:	0f 92       	push	r0
 4da:	11 24       	eor	r1, r1
 4dc:	8f 93       	push	r24
 4de:	9f 93       	push	r25
	if (counterTimer++ == 125){
 4e0:	80 91 11 01 	lds	r24, 0x0111	; 0x800111 <counterTimer>
 4e4:	91 e0       	ldi	r25, 0x01	; 1
 4e6:	98 0f       	add	r25, r24
 4e8:	90 93 11 01 	sts	0x0111, r25	; 0x800111 <counterTimer>
 4ec:	8d 37       	cpi	r24, 0x7D	; 125
 4ee:	29 f4       	brne	.+10     	; 0x4fa <__vector_14+0x28>
		flagTimer = 1;
 4f0:	81 e0       	ldi	r24, 0x01	; 1
 4f2:	80 93 12 01 	sts	0x0112, r24	; 0x800112 <flagTimer>
		counterTimer = 0;
 4f6:	10 92 11 01 	sts	0x0111, r1	; 0x800111 <counterTimer>
	}	
 4fa:	9f 91       	pop	r25
 4fc:	8f 91       	pop	r24
 4fe:	0f 90       	pop	r0
 500:	0f be       	out	0x3f, r0	; 63
 502:	0f 90       	pop	r0
 504:	1f 90       	pop	r1
 506:	18 95       	reti

00000508 <__umulhisi3>:
 508:	a2 9f       	mul	r26, r18
 50a:	b0 01       	movw	r22, r0
 50c:	b3 9f       	mul	r27, r19
 50e:	c0 01       	movw	r24, r0
 510:	a3 9f       	mul	r26, r19
 512:	70 0d       	add	r23, r0
 514:	81 1d       	adc	r24, r1
 516:	11 24       	eor	r1, r1
 518:	91 1d       	adc	r25, r1
 51a:	b2 9f       	mul	r27, r18
 51c:	70 0d       	add	r23, r0
 51e:	81 1d       	adc	r24, r1
 520:	11 24       	eor	r1, r1
 522:	91 1d       	adc	r25, r1
 524:	08 95       	ret

00000526 <_exit>:
 526:	f8 94       	cli

00000528 <__stop_program>:
 528:	ff cf       	rjmp	.-2      	; 0x528 <__stop_program>
