S00B00005450342E7372656341
S11300000C9454000C9471000C9471000C947100C5
S11300100C9471000C9471000C9471000C94710098
S11300200C9471000C9471000C9471000C94710088
S11300300C9471000C9471000C9469020C9471007E
S11300400C9471000C9471000C9471000C94710068
S11300500C9471000C948C000C9471000C9471003D
S11300600C9471000C947100001F000000001F002C
S1130070001F101010101F00001F181818181F0060
S1130080001F1C1C1C1C1F00001F1E1E1E1E1F0008
S1130090001F1F1F1F1F1F0003070F1F0F07030051
S11300A0181C1E1F1E1C180011241FBECFEFD8E001
S11300B0DEBFCDBF11E0A0E0B1E0EAE2F5E002C0AE
S11300C005900D92AE30B107D9F721E0AEE0B1E072
S11300D001C01D92A731B207E1F70E94CC010C9434
S11300E093020C940000EAE7F0E080818F6A808339
S11300F010927C000895EAE7F0E0808180648083B8
S1130100089580910F0190911001089580910E013E
S1130110089510920E0108951F920F920FB60F9238
S113012011242F933F938F939F93209178003091C4
S1130130790080910F01909110012817390719F067
S113014081E080930E0180917800909179009093E2
S1130150100180930F019F918F913F912F910F90E8
S11301600FBE0F901F901895982F907F9BB9589AA7
S11301705A9AEFECF7E03197F1F700C000005A9873
S11301805898EFECF7E03197F1F700C00000F0E188
S11301908F9FC00111248BB9589A5A9A8FEC97E01B
S11301A00197F1F700C000005A985898EFECF7E077
S11301B03197F1F700C000000895982F907F9BB904
S11301C05A9A2AE62A95F1F700C05A989AE69A951F
S11301D0F1F700C020E1829FC00111248BB95A9A23
S11301E08AE68A95F1F700C05A989AE69A95F1F74B
S11301F000C008950F931F93CF93DF93009781F06E
S1130200662371F0EC016150062F10E00F5F1F4F61
S1130210080F191F89910E94B400C017D107D1F7A4
S1130220DF91CF911F910F910895623031F06330C7
S113023031F0613029F4805C03C08C5E01C08C5ABB
S113024080680E94DD000895FF920F931F93CF935F
S1130250DF93660F660F660F6064EC016894FF24F9
S1130260F3F8F60EFE01049111E0160F862F0E949A
S1130270DD00802F0E94B4002196612F1F11F2CF60
S1130280DF91CF911F910F91FF9008951F93CF930A
S1130290DF938FE295E70197F1F700C000001BB8E8
S11302A01BB88AB1806F8AB98AB187608AB980E342
S11302B08BB95A9AEFECF7E03197F1F700C00000E0
S11302C05A98EFECF7E03197F1F700C000008BB9D2
S11302D05A9A8FEC97E00197F1F700C000005A9802
S11302E0EFECF7E03197F1F700C0000080E28BB942
S11302F05A9A8FEC97E00197F1F700C000005A98E2
S1130300EFECF7E03197F1F700C0000088E20E94BB
S1130310DD008CE00E94DD00C8E6D0E060E011E082
S1130320160FCE010E9424012896612F1830B9F7C8
S1130330DF91CF911F910895FA018A3098F09DECD6
S1130340899F912D112496959695969520E3290FD2
S11303502083990F292F220F220F920F891B805D72
S1130360818304C090E39083805D8183605D6383B7
S1130370089560E080E00E94150166E084E091E069
S11303800E94FA0060E08AE00E94150162E08BE0BE
S113039091E00E94FA00089584B1836084B90E94B8
S11303A0460178940E9473000E947B000E94B90168
S11303B00E945502D2E0C1E00E946302882309F43E
S11303C04BC00E9481009C01A8E8B3E10E94840212
S11303D06B017C010B2EBAE0F694E794D794C79492
S11303E0BA95D1F7B02D9601ADECBCEC0E94840215
S11303F09695879596958795969587959C01220F56
S1130400331F880F991F880F991F880F991F820F18
S1130410931F9601281B390B2093160196010E9405
S1130420840296958795969587959695879580935A
S1130430130160E086E00E94150140E051E0609104
S11304401601809113010E949C0164E080E091E018
S11304500E94FA000E9466020E948600882309F422
S1130460ABCF0E9481009C01A8E8B3E10E94840202
S1130470DC01CB01072E7AE0B695A7959795879571
S11304807A95D1F7702D9093150180931401813FD3
S1130490910510F0C5B906C08A3A910510F4D5B992
S11304A001C015B80E94890087CF8DE787BD84B548
S11304B0826084BD85B5846085BDEEE6F0E0808110
S11304C08260808308958091120108951092120130
S11304D008951F920F920FB60F9211248F939F933A
S11304E08091110191E0980F909311018D3729F4B7
S11304F081E080931201109211019F918F910F90CE
S11305000FBE0F901F901895A29FB001B39FC0011A
S1130510A39F700D811D1124911DB29F700D811D2B
S10D05201124911D0895F894FFCFF3
S111052A30302E3054454D503A20002043000E
S9030000FC
